{
  "_format": "hh-sol-artifact-1",
  "contractName": "DragonBallZ1155",
  "sourceName": "contracts/DragonBallZ1155.sol",
  "abi": [
    {
      "inputs": [
        {
          "internalType": "string",
          "name": "_name",
          "type": "string"
        },
        {
          "internalType": "string",
          "name": "_symbol",
          "type": "string"
        }
      ],
      "stateMutability": "nonpayable",
      "type": "constructor"
    },
    {
      "anonymous": false,
      "inputs": [
        {
          "indexed": true,
          "internalType": "address",
          "name": "_owner",
          "type": "address"
        },
        {
          "indexed": true,
          "internalType": "address",
          "name": "_operator",
          "type": "address"
        },
        {
          "indexed": false,
          "internalType": "bool",
          "name": "_approved",
          "type": "bool"
        }
      ],
      "name": "ApprovalForAll",
      "type": "event"
    },
    {
      "anonymous": false,
      "inputs": [
        {
          "indexed": true,
          "internalType": "address",
          "name": "_operator",
          "type": "address"
        },
        {
          "indexed": true,
          "internalType": "address",
          "name": "_from",
          "type": "address"
        },
        {
          "indexed": true,
          "internalType": "address",
          "name": "_to",
          "type": "address"
        },
        {
          "indexed": false,
          "internalType": "uint256[]",
          "name": "_ids",
          "type": "uint256[]"
        },
        {
          "indexed": false,
          "internalType": "uint256[]",
          "name": "_values",
          "type": "uint256[]"
        }
      ],
      "name": "TransferBatch",
      "type": "event"
    },
    {
      "anonymous": false,
      "inputs": [
        {
          "indexed": true,
          "internalType": "address",
          "name": "_operator",
          "type": "address"
        },
        {
          "indexed": true,
          "internalType": "address",
          "name": "_from",
          "type": "address"
        },
        {
          "indexed": true,
          "internalType": "address",
          "name": "_to",
          "type": "address"
        },
        {
          "indexed": false,
          "internalType": "uint256",
          "name": "_id",
          "type": "uint256"
        },
        {
          "indexed": false,
          "internalType": "uint256",
          "name": "_value",
          "type": "uint256"
        }
      ],
      "name": "TransferSingle",
      "type": "event"
    },
    {
      "inputs": [
        {
          "internalType": "address",
          "name": "account",
          "type": "address"
        },
        {
          "internalType": "uint256",
          "name": "id",
          "type": "uint256"
        }
      ],
      "name": "balanceOf",
      "outputs": [
        {
          "internalType": "uint256",
          "name": "",
          "type": "uint256"
        }
      ],
      "stateMutability": "view",
      "type": "function"
    },
    {
      "inputs": [
        {
          "internalType": "address[]",
          "name": "accounts",
          "type": "address[]"
        },
        {
          "internalType": "uint256[]",
          "name": "ids",
          "type": "uint256[]"
        }
      ],
      "name": "balanceOfBatch",
      "outputs": [
        {
          "internalType": "uint256[]",
          "name": "",
          "type": "uint256[]"
        }
      ],
      "stateMutability": "view",
      "type": "function"
    },
    {
      "inputs": [
        {
          "internalType": "address",
          "name": "owner",
          "type": "address"
        },
        {
          "internalType": "address",
          "name": "operator",
          "type": "address"
        }
      ],
      "name": "isApprovedForAll",
      "outputs": [
        {
          "internalType": "bool",
          "name": "",
          "type": "bool"
        }
      ],
      "stateMutability": "view",
      "type": "function"
    },
    {
      "inputs": [
        {
          "internalType": "uint256",
          "name": "amount",
          "type": "uint256"
        },
        {
          "internalType": "string",
          "name": "_uri",
          "type": "string"
        }
      ],
      "name": "mint",
      "outputs": [],
      "stateMutability": "nonpayable",
      "type": "function"
    },
    {
      "inputs": [],
      "name": "name",
      "outputs": [
        {
          "internalType": "string",
          "name": "",
          "type": "string"
        }
      ],
      "stateMutability": "view",
      "type": "function"
    },
    {
      "inputs": [
        {
          "internalType": "address",
          "name": "from",
          "type": "address"
        },
        {
          "internalType": "address",
          "name": "to",
          "type": "address"
        },
        {
          "internalType": "uint256[]",
          "name": "ids",
          "type": "uint256[]"
        },
        {
          "internalType": "uint256[]",
          "name": "amounts",
          "type": "uint256[]"
        },
        {
          "internalType": "bytes",
          "name": "data",
          "type": "bytes"
        }
      ],
      "name": "safeBatchTransferFrom",
      "outputs": [],
      "stateMutability": "nonpayable",
      "type": "function"
    },
    {
      "inputs": [
        {
          "internalType": "address",
          "name": "from",
          "type": "address"
        },
        {
          "internalType": "address",
          "name": "to",
          "type": "address"
        },
        {
          "internalType": "uint256",
          "name": "id",
          "type": "uint256"
        },
        {
          "internalType": "uint256",
          "name": "amount",
          "type": "uint256"
        },
        {
          "internalType": "bytes",
          "name": "_data",
          "type": "bytes"
        }
      ],
      "name": "safeTransferFrom",
      "outputs": [],
      "stateMutability": "nonpayable",
      "type": "function"
    },
    {
      "inputs": [
        {
          "internalType": "address",
          "name": "operator",
          "type": "address"
        },
        {
          "internalType": "bool",
          "name": "approved",
          "type": "bool"
        }
      ],
      "name": "setApprovalForAll",
      "outputs": [],
      "stateMutability": "nonpayable",
      "type": "function"
    },
    {
      "inputs": [
        {
          "internalType": "bytes4",
          "name": "interfaceId",
          "type": "bytes4"
        }
      ],
      "name": "supportsInterface",
      "outputs": [
        {
          "internalType": "bool",
          "name": "",
          "type": "bool"
        }
      ],
      "stateMutability": "pure",
      "type": "function"
    },
    {
      "inputs": [],
      "name": "symbol",
      "outputs": [
        {
          "internalType": "string",
          "name": "",
          "type": "string"
        }
      ],
      "stateMutability": "view",
      "type": "function"
    },
    {
      "inputs": [],
      "name": "tokenCount",
      "outputs": [
        {
          "internalType": "uint256",
          "name": "",
          "type": "uint256"
        }
      ],
      "stateMutability": "view",
      "type": "function"
    },
    {
      "inputs": [
        {
          "internalType": "uint256",
          "name": "tokenId",
          "type": "uint256"
        }
      ],
      "name": "uri",
      "outputs": [
        {
          "internalType": "string",
          "name": "",
          "type": "string"
        }
      ],
      "stateMutability": "view",
      "type": "function"
    }
  ],
  "bytecode": "0x60806040523480156200001157600080fd5b50604051620026de380380620026de8339818101604052810190620000379190620001f6565b8160029081620000489190620004c6565b5080600390816200005a9190620004c6565b505050620005ad565b6000604051905090565b600080fd5b600080fd5b600080fd5b600080fd5b6000601f19601f8301169050919050565b7f4e487b7100000000000000000000000000000000000000000000000000000000600052604160045260246000fd5b620000cc8262000081565b810181811067ffffffffffffffff82111715620000ee57620000ed62000092565b5b80604052505050565b60006200010362000063565b9050620001118282620000c1565b919050565b600067ffffffffffffffff82111562000134576200013362000092565b5b6200013f8262000081565b9050602081019050919050565b60005b838110156200016c5780820151818401526020810190506200014f565b60008484015250505050565b60006200018f620001898462000116565b620000f7565b905082815260208101848484011115620001ae57620001ad6200007c565b5b620001bb8482856200014c565b509392505050565b600082601f830112620001db57620001da62000077565b5b8151620001ed84826020860162000178565b91505092915050565b6000806040838503121562000210576200020f6200006d565b5b600083015167ffffffffffffffff81111562000231576200023062000072565b5b6200023f85828601620001c3565b925050602083015167ffffffffffffffff81111562000263576200026262000072565b5b6200027185828601620001c3565b9150509250929050565b600081519050919050565b7f4e487b7100000000000000000000000000000000000000000000000000000000600052602260045260246000fd5b60006002820490506001821680620002ce57607f821691505b602082108103620002e457620002e362000286565b5b50919050565b60008190508160005260206000209050919050565b60006020601f8301049050919050565b600082821b905092915050565b6000600883026200034e7fffffffffffffffffffffffffffffffffffffffffffffffffffffffffffffffff826200030f565b6200035a86836200030f565b95508019841693508086168417925050509392505050565b6000819050919050565b6000819050919050565b6000620003a7620003a16200039b8462000372565b6200037c565b62000372565b9050919050565b6000819050919050565b620003c38362000386565b620003db620003d282620003ae565b8484546200031c565b825550505050565b600090565b620003f2620003e3565b620003ff818484620003b8565b505050565b5b8181101562000427576200041b600082620003e8565b60018101905062000405565b5050565b601f82111562000476576200044081620002ea565b6200044b84620002ff565b810160208510156200045b578190505b620004736200046a85620002ff565b83018262000404565b50505b505050565b600082821c905092915050565b60006200049b600019846008026200047b565b1980831691505092915050565b6000620004b6838362000488565b9150826002028217905092915050565b620004d1826200027b565b67ffffffffffffffff811115620004ed57620004ec62000092565b5b620004f98254620002b5565b620005068282856200042b565b600060209050601f8311600181146200053e576000841562000529578287015190505b620005358582620004a8565b865550620005a5565b601f1984166200054e86620002ea565b60005b82811015620005785784890151825560018201915060208501945060208101905062000551565b8683101562000598578489015162000594601f89168262000488565b8355505b6001600288020188555050505b505050505050565b61212180620005bd6000396000f3fe608060405234801561001057600080fd5b50600436106100b35760003560e01c806377097fc81161007157806377097fc8146101b257806395d89b41146101ce5780639f181b5e146101ec578063a22cb4651461020a578063e985e9c514610226578063f242432a14610256576100b3565b8062fdd58e146100b857806301ffc9a7146100e857806306fdde03146101185780630e89341c146101365780632eb2c2d6146101665780634e1273f414610182575b600080fd5b6100d260048036038101906100cd9190610fe2565b610272565b6040516100df9190611031565b60405180910390f35b61010260048036038101906100fd91906110a4565b61033a565b60405161010f91906110ec565b60405180910390f35b61012061039c565b60405161012d9190611197565b60405180910390f35b610150600480360381019061014b91906111b9565b61042a565b60405161015d9190611197565b60405180910390f35b610180600480360381019061017b9190611389565b6104cf565b005b61019c6004803603810190610197919061151e565b61073a565b6040516101a99190611654565b60405180910390f35b6101cc60048036038101906101c7919061172b565b610855565b005b6101d66109ee565b6040516101e39190611197565b60405180910390f35b6101f4610a7c565b6040516102019190611031565b60405180910390f35b610224600480360381019061021f91906117b3565b610a82565b005b610240600480360381019061023b91906117f3565b610b7f565b60405161024d91906110ec565b60405180910390f35b610270600480360381019061026b9190611833565b610c13565b005b60008073ffffffffffffffffffffffffffffffffffffffff168373ffffffffffffffffffffffffffffffffffffffff16036102e2576040517f08c379a00000000000000000000000000000000000000000000000000000000081526004016102d990611919565b60405180910390fd5b60008083815260200190815260200160002060008473ffffffffffffffffffffffffffffffffffffffff1673ffffffffffffffffffffffffffffffffffffffff16815260200190815260200160002054905092915050565b600063d9b67a2660e01b827bffffffffffffffffffffffffffffffffffffffffffffffffffffffff191614806103955750630e89341c60e01b827bffffffffffffffffffffffffffffffffffffffffffffffffffffffff1916145b9050919050565b600280546103a990611968565b80601f01602080910402602001604051908101604052809291908181526020018280546103d590611968565b80156104225780601f106103f757610100808354040283529160200191610422565b820191906000526020600020905b81548152906001019060200180831161040557829003601f168201915b505050505081565b606060056000838152602001908152602001600020805461044a90611968565b80601f016020809104026020016040519081016040528092919081815260200182805461047690611968565b80156104c35780601f10610498576101008083540402835291602001916104c3565b820191906000526020600020905b8154815290600101906020018083116104a657829003601f168201915b50505050509050919050565b8573ffffffffffffffffffffffffffffffffffffffff163373ffffffffffffffffffffffffffffffffffffffff16148061050f575061050e8633610b7f565b5b61054e576040517f08c379a000000000000000000000000000000000000000000000000000000000815260040161054590611a0b565b60405180910390fd5b600073ffffffffffffffffffffffffffffffffffffffff168573ffffffffffffffffffffffffffffffffffffffff16036105bd576040517f08c379a00000000000000000000000000000000000000000000000000000000081526004016105b490611a77565b60405180910390fd5b8251845103610601576040517f08c379a00000000000000000000000000000000000000000000000000000000081526004016105f890611b09565b60405180910390fd5b60005b845181101561066c57600085828151811061062257610621611b29565b5b60200260200101519050600085838151811061064157610640611b29565b5b6020026020010151905061065789898484610dce565b5050808061066490611b87565b915050610604565b508473ffffffffffffffffffffffffffffffffffffffff168673ffffffffffffffffffffffffffffffffffffffff163373ffffffffffffffffffffffffffffffffffffffff167f4a39dc06d4c0dbc64b70af90fd698a233a518aa5d07e595d983b8c0526c8f7fb87876040516106e3929190611bcf565b60405180910390a46106f3610f31565b610732576040517f08c379a000000000000000000000000000000000000000000000000000000000815260040161072990611c52565b60405180910390fd5b505050505050565b60608151835114610780576040517f08c379a000000000000000000000000000000000000000000000000000000000815260040161077790611ce4565b60405180910390fd5b6000835167ffffffffffffffff81111561079d5761079c6111eb565b5b6040519080825280602002602001820160405280156107cb5781602001602082028036833780820191505090505b50905060005b845181101561084a576108188582815181106107f0576107ef611b29565b5b602002602001015185838151811061080b5761080a611b29565b5b6020026020010151610272565b82828151811061082b5761082a611b29565b5b602002602001018181525050808061084290611b87565b9150506107d1565b508091505092915050565b600073ffffffffffffffffffffffffffffffffffffffff163373ffffffffffffffffffffffffffffffffffffffff16036108c4576040517f08c379a00000000000000000000000000000000000000000000000000000000081526004016108bb90611d50565b60405180910390fd5b6001600460008282546108d79190611d70565b9250508190555081600080600454815260200190815260200160002060003373ffffffffffffffffffffffffffffffffffffffff1673ffffffffffffffffffffffffffffffffffffffff168152602001908152602001600020600082825461093f9190611d70565b925050819055508060056000600454815260200190815260200160002090816109689190611f50565b503373ffffffffffffffffffffffffffffffffffffffff16600073ffffffffffffffffffffffffffffffffffffffff163373ffffffffffffffffffffffffffffffffffffffff167fc3d58168c5ae7397731d063d5bbf3d657854427343f4c083240f7aacaa2d0f62600454866040516109e2929190612022565b60405180910390a45050565b600380546109fb90611968565b80601f0160208091040260200160405190810160405280929190818152602001828054610a2790611968565b8015610a745780601f10610a4957610100808354040283529160200191610a74565b820191906000526020600020905b815481529060010190602001808311610a5757829003601f168201915b505050505081565b60045481565b80600160003373ffffffffffffffffffffffffffffffffffffffff1673ffffffffffffffffffffffffffffffffffffffff16815260200190815260200160002060008473ffffffffffffffffffffffffffffffffffffffff1673ffffffffffffffffffffffffffffffffffffffff16815260200190815260200160002060006101000a81548160ff0219169083151502179055508173ffffffffffffffffffffffffffffffffffffffff163373ffffffffffffffffffffffffffffffffffffffff167f17307eab39ab6107e8899845ad3d59bd9653f200f220920489ca2b5937696c3183604051610b7391906110ec565b60405180910390a35050565b6000600160008473ffffffffffffffffffffffffffffffffffffffff1673ffffffffffffffffffffffffffffffffffffffff16815260200190815260200160002060008373ffffffffffffffffffffffffffffffffffffffff1673ffffffffffffffffffffffffffffffffffffffff16815260200190815260200160002060009054906101000a900460ff16905092915050565b8573ffffffffffffffffffffffffffffffffffffffff163373ffffffffffffffffffffffffffffffffffffffff161480610c535750610c528633610b7f565b5b610c92576040517f08c379a0000000000000000000000000000000000000000000000000000000008152600401610c8990611a0b565b60405180910390fd5b600073ffffffffffffffffffffffffffffffffffffffff168573ffffffffffffffffffffffffffffffffffffffff1603610d01576040517f08c379a0000000000000000000000000000000000000000000000000000000008152600401610cf890611a77565b60405180910390fd5b8473ffffffffffffffffffffffffffffffffffffffff168673ffffffffffffffffffffffffffffffffffffffff163373ffffffffffffffffffffffffffffffffffffffff167fc3d58168c5ae7397731d063d5bbf3d657854427343f4c083240f7aacaa2d0f628787604051610d77929190612022565b60405180910390a4610d87610f31565b610dc6576040517f08c379a0000000000000000000000000000000000000000000000000000000008152600401610dbd90611c52565b60405180910390fd5b505050505050565b600080600084815260200190815260200160002060008673ffffffffffffffffffffffffffffffffffffffff1673ffffffffffffffffffffffffffffffffffffffff16815260200190815260200160002054905081811015610e65576040517f08c379a0000000000000000000000000000000000000000000000000000000008152600401610e5c90612097565b60405180910390fd5b8181610e7191906120b7565b60008085815260200190815260200160002060008773ffffffffffffffffffffffffffffffffffffffff1673ffffffffffffffffffffffffffffffffffffffff168152602001908152602001600020819055508160008085815260200190815260200160002060008673ffffffffffffffffffffffffffffffffffffffff1673ffffffffffffffffffffffffffffffffffffffff1681526020019081526020016000206000828254610f239190611d70565b925050819055505050505050565b60006001905090565b6000604051905090565b600080fd5b600080fd5b600073ffffffffffffffffffffffffffffffffffffffff82169050919050565b6000610f7982610f4e565b9050919050565b610f8981610f6e565b8114610f9457600080fd5b50565b600081359050610fa681610f80565b92915050565b6000819050919050565b610fbf81610fac565b8114610fca57600080fd5b50565b600081359050610fdc81610fb6565b92915050565b60008060408385031215610ff957610ff8610f44565b5b600061100785828601610f97565b925050602061101885828601610fcd565b9150509250929050565b61102b81610fac565b82525050565b60006020820190506110466000830184611022565b92915050565b60007fffffffff0000000000000000000000000000000000000000000000000000000082169050919050565b6110818161104c565b811461108c57600080fd5b50565b60008135905061109e81611078565b92915050565b6000602082840312156110ba576110b9610f44565b5b60006110c88482850161108f565b91505092915050565b60008115159050919050565b6110e6816110d1565b82525050565b600060208201905061110160008301846110dd565b92915050565b600081519050919050565b600082825260208201905092915050565b60005b83811015611141578082015181840152602081019050611126565b60008484015250505050565b6000601f19601f8301169050919050565b600061116982611107565b6111738185611112565b9350611183818560208601611123565b61118c8161114d565b840191505092915050565b600060208201905081810360008301526111b1818461115e565b905092915050565b6000602082840312156111cf576111ce610f44565b5b60006111dd84828501610fcd565b91505092915050565b600080fd5b7f4e487b7100000000000000000000000000000000000000000000000000000000600052604160045260246000fd5b6112238261114d565b810181811067ffffffffffffffff82111715611242576112416111eb565b5b80604052505050565b6000611255610f3a565b9050611261828261121a565b919050565b600067ffffffffffffffff821115611281576112806111eb565b5b602082029050602081019050919050565b600080fd5b60006112aa6112a584611266565b61124b565b905080838252602082019050602084028301858111156112cd576112cc611292565b5b835b818110156112f657806112e28882610fcd565b8452602084019350506020810190506112cf565b5050509392505050565b600082601f830112611315576113146111e6565b5b8135611325848260208601611297565b91505092915050565b600080fd5b60008083601f840112611349576113486111e6565b5b8235905067ffffffffffffffff8111156113665761136561132e565b5b60208301915083600182028301111561138257611381611292565b5b9250929050565b60008060008060008060a087890312156113a6576113a5610f44565b5b60006113b489828a01610f97565b96505060206113c589828a01610f97565b955050604087013567ffffffffffffffff8111156113e6576113e5610f49565b5b6113f289828a01611300565b945050606087013567ffffffffffffffff81111561141357611412610f49565b5b61141f89828a01611300565b935050608087013567ffffffffffffffff8111156114405761143f610f49565b5b61144c89828a01611333565b92509250509295509295509295565b600067ffffffffffffffff821115611476576114756111eb565b5b602082029050602081019050919050565b600061149a6114958461145b565b61124b565b905080838252602082019050602084028301858111156114bd576114bc611292565b5b835b818110156114e657806114d28882610f97565b8452602084019350506020810190506114bf565b5050509392505050565b600082601f830112611505576115046111e6565b5b8135611515848260208601611487565b91505092915050565b6000806040838503121561153557611534610f44565b5b600083013567ffffffffffffffff81111561155357611552610f49565b5b61155f858286016114f0565b925050602083013567ffffffffffffffff8111156115805761157f610f49565b5b61158c85828601611300565b9150509250929050565b600081519050919050565b600082825260208201905092915050565b6000819050602082019050919050565b6115cb81610fac565b82525050565b60006115dd83836115c2565b60208301905092915050565b6000602082019050919050565b600061160182611596565b61160b81856115a1565b9350611616836115b2565b8060005b8381101561164757815161162e88826115d1565b9750611639836115e9565b92505060018101905061161a565b5085935050505092915050565b6000602082019050818103600083015261166e81846115f6565b905092915050565b600080fd5b600067ffffffffffffffff821115611696576116956111eb565b5b61169f8261114d565b9050602081019050919050565b82818337600083830152505050565b60006116ce6116c98461167b565b61124b565b9050828152602081018484840111156116ea576116e9611676565b5b6116f58482856116ac565b509392505050565b600082601f830112611712576117116111e6565b5b81356117228482602086016116bb565b91505092915050565b6000806040838503121561174257611741610f44565b5b600061175085828601610fcd565b925050602083013567ffffffffffffffff81111561177157611770610f49565b5b61177d858286016116fd565b9150509250929050565b611790816110d1565b811461179b57600080fd5b50565b6000813590506117ad81611787565b92915050565b600080604083850312156117ca576117c9610f44565b5b60006117d885828601610f97565b92505060206117e98582860161179e565b9150509250929050565b6000806040838503121561180a57611809610f44565b5b600061181885828601610f97565b925050602061182985828601610f97565b9150509250929050565b60008060008060008060a087890312156118505761184f610f44565b5b600061185e89828a01610f97565b965050602061186f89828a01610f97565b955050604061188089828a01610fcd565b945050606061189189828a01610fcd565b935050608087013567ffffffffffffffff8111156118b2576118b1610f49565b5b6118be89828a01611333565b92509250509295509295509295565b7f61646472657373206973207a65726f0000000000000000000000000000000000600082015250565b6000611903600f83611112565b915061190e826118cd565b602082019050919050565b60006020820190508181036000830152611932816118f6565b9050919050565b7f4e487b7100000000000000000000000000000000000000000000000000000000600052602260045260246000fd5b6000600282049050600182168061198057607f821691505b60208210810361199357611992611939565b5b50919050565b7f6d73672e73656e646572206973206e6f7420746865206f70657261746f72206f60008201527f72206f776e657200000000000000000000000000000000000000000000000000602082015250565b60006119f5602783611112565b9150611a0082611999565b604082019050919050565b60006020820190508181036000830152611a24816119e8565b9050919050565b7f6164647265737320697320300000000000000000000000000000000000000000600082015250565b6000611a61600c83611112565b9150611a6c82611a2b565b602082019050919050565b60006020820190508181036000830152611a9081611a54565b9050919050565b7f69647320616e6420616d6f756e74732073686f756c64206265206f662074686560008201527f2073616d65206c656e6774680000000000000000000000000000000000000000602082015250565b6000611af3602c83611112565b9150611afe82611a97565b604082019050919050565b60006020820190508181036000830152611b2281611ae6565b9050919050565b7f4e487b7100000000000000000000000000000000000000000000000000000000600052603260045260246000fd5b7f4e487b7100000000000000000000000000000000000000000000000000000000600052601160045260246000fd5b6000611b9282610fac565b91507fffffffffffffffffffffffffffffffffffffffffffffffffffffffffffffffff8203611bc457611bc3611b58565b5b600182019050919050565b60006040820190508181036000830152611be981856115f6565b90508181036020830152611bfd81846115f6565b90509392505050565b7f7265636569766572206973206e6f7420696d706c656d656e7465640000000000600082015250565b6000611c3c601b83611112565b9150611c4782611c06565b602082019050919050565b60006020820190508181036000830152611c6b81611c2f565b9050919050565b7f6163636f756e7420616e642069647320617265206e6f74207468652073616d6560008201527f206c656e67746800000000000000000000000000000000000000000000000000602082015250565b6000611cce602783611112565b9150611cd982611c72565b604082019050919050565b60006020820190508181036000830152611cfd81611cc1565b9050919050565b7f4d696e7420746f20746865207a65726f20616464726573730000000000000000600082015250565b6000611d3a601883611112565b9150611d4582611d04565b602082019050919050565b60006020820190508181036000830152611d6981611d2d565b9050919050565b6000611d7b82610fac565b9150611d8683610fac565b9250828201905080821115611d9e57611d9d611b58565b5b92915050565b60008190508160005260206000209050919050565b60006020601f8301049050919050565b600082821b905092915050565b600060088302611e067fffffffffffffffffffffffffffffffffffffffffffffffffffffffffffffffff82611dc9565b611e108683611dc9565b95508019841693508086168417925050509392505050565b6000819050919050565b6000611e4d611e48611e4384610fac565b611e28565b610fac565b9050919050565b6000819050919050565b611e6783611e32565b611e7b611e7382611e54565b848454611dd6565b825550505050565b600090565b611e90611e83565b611e9b818484611e5e565b505050565b5b81811015611ebf57611eb4600082611e88565b600181019050611ea1565b5050565b601f821115611f0457611ed581611da4565b611ede84611db9565b81016020851015611eed578190505b611f01611ef985611db9565b830182611ea0565b50505b505050565b600082821c905092915050565b6000611f2760001984600802611f09565b1980831691505092915050565b6000611f408383611f16565b9150826002028217905092915050565b611f5982611107565b67ffffffffffffffff811115611f7257611f716111eb565b5b611f7c8254611968565b611f87828285611ec3565b600060209050601f831160018114611fba5760008415611fa8578287015190505b611fb28582611f34565b86555061201a565b601f198416611fc886611da4565b60005b82811015611ff057848901518255600182019150602085019450602081019050611fcb565b8683101561200d5784890151612009601f891682611f16565b8355505b6001600288020188555050505b505050505050565b60006040820190506120376000830185611022565b6120446020830184611022565b9392505050565b7f696e7375666669656369656e742066756e647300000000000000000000000000600082015250565b6000612081601383611112565b915061208c8261204b565b602082019050919050565b600060208201905081810360008301526120b081612074565b9050919050565b60006120c282610fac565b91506120cd83610fac565b92508282039050818111156120e5576120e4611b58565b5b9291505056fea2646970667358221220e1275370ba5d1333284a41b2debe0cd89f7c92b7a97cfdeda56162ad12df42ac64736f6c63430008110033",
  "linkReferences": {},
  "deployedLinkReferences": {}
}