{
  "_format": "hh-sol-artifact-1",
  "contractName": "ERC1155",
  "sourceName": "contracts/ERC1155.sol",
  "abi": [
    {
      "anonymous": false,
      "inputs": [
        {
          "indexed": true,
          "internalType": "address",
          "name": "_owner",
          "type": "address"
        },
        {
          "indexed": true,
          "internalType": "address",
          "name": "_operator",
          "type": "address"
        },
        {
          "indexed": false,
          "internalType": "bool",
          "name": "_approved",
          "type": "bool"
        }
      ],
      "name": "ApprovalForAll",
      "type": "event"
    },
    {
      "anonymous": false,
      "inputs": [
        {
          "indexed": true,
          "internalType": "address",
          "name": "_operator",
          "type": "address"
        },
        {
          "indexed": true,
          "internalType": "address",
          "name": "_from",
          "type": "address"
        },
        {
          "indexed": true,
          "internalType": "address",
          "name": "_to",
          "type": "address"
        },
        {
          "indexed": false,
          "internalType": "uint256[]",
          "name": "_ids",
          "type": "uint256[]"
        },
        {
          "indexed": false,
          "internalType": "uint256[]",
          "name": "_values",
          "type": "uint256[]"
        }
      ],
      "name": "TransferBatch",
      "type": "event"
    },
    {
      "anonymous": false,
      "inputs": [
        {
          "indexed": true,
          "internalType": "address",
          "name": "_operator",
          "type": "address"
        },
        {
          "indexed": true,
          "internalType": "address",
          "name": "_from",
          "type": "address"
        },
        {
          "indexed": true,
          "internalType": "address",
          "name": "_to",
          "type": "address"
        },
        {
          "indexed": false,
          "internalType": "uint256",
          "name": "_id",
          "type": "uint256"
        },
        {
          "indexed": false,
          "internalType": "uint256",
          "name": "_value",
          "type": "uint256"
        }
      ],
      "name": "TransferSingle",
      "type": "event"
    },
    {
      "inputs": [
        {
          "internalType": "address",
          "name": "account",
          "type": "address"
        },
        {
          "internalType": "uint256",
          "name": "id",
          "type": "uint256"
        }
      ],
      "name": "balanceOf",
      "outputs": [
        {
          "internalType": "uint256",
          "name": "",
          "type": "uint256"
        }
      ],
      "stateMutability": "view",
      "type": "function"
    },
    {
      "inputs": [
        {
          "internalType": "address[]",
          "name": "accounts",
          "type": "address[]"
        },
        {
          "internalType": "uint256[]",
          "name": "ids",
          "type": "uint256[]"
        }
      ],
      "name": "balanceOfBatch",
      "outputs": [
        {
          "internalType": "uint256[]",
          "name": "",
          "type": "uint256[]"
        }
      ],
      "stateMutability": "view",
      "type": "function"
    },
    {
      "inputs": [
        {
          "internalType": "address",
          "name": "owner",
          "type": "address"
        },
        {
          "internalType": "address",
          "name": "operator",
          "type": "address"
        }
      ],
      "name": "isApprovedForAll",
      "outputs": [
        {
          "internalType": "bool",
          "name": "",
          "type": "bool"
        }
      ],
      "stateMutability": "view",
      "type": "function"
    },
    {
      "inputs": [
        {
          "internalType": "address",
          "name": "from",
          "type": "address"
        },
        {
          "internalType": "address",
          "name": "to",
          "type": "address"
        },
        {
          "internalType": "uint256[]",
          "name": "ids",
          "type": "uint256[]"
        },
        {
          "internalType": "uint256[]",
          "name": "amounts",
          "type": "uint256[]"
        },
        {
          "internalType": "bytes",
          "name": "data",
          "type": "bytes"
        }
      ],
      "name": "safeBatchTransferFrom",
      "outputs": [],
      "stateMutability": "nonpayable",
      "type": "function"
    },
    {
      "inputs": [
        {
          "internalType": "address",
          "name": "from",
          "type": "address"
        },
        {
          "internalType": "address",
          "name": "to",
          "type": "address"
        },
        {
          "internalType": "uint256",
          "name": "id",
          "type": "uint256"
        },
        {
          "internalType": "uint256",
          "name": "amount",
          "type": "uint256"
        },
        {
          "internalType": "bytes",
          "name": "_data",
          "type": "bytes"
        }
      ],
      "name": "safeTransferFrom",
      "outputs": [],
      "stateMutability": "nonpayable",
      "type": "function"
    },
    {
      "inputs": [
        {
          "internalType": "address",
          "name": "operator",
          "type": "address"
        },
        {
          "internalType": "bool",
          "name": "approved",
          "type": "bool"
        }
      ],
      "name": "setApprovalForAll",
      "outputs": [],
      "stateMutability": "nonpayable",
      "type": "function"
    },
    {
      "inputs": [
        {
          "internalType": "bytes4",
          "name": "interfaceId",
          "type": "bytes4"
        }
      ],
      "name": "supportsInterface",
      "outputs": [
        {
          "internalType": "bool",
          "name": "",
          "type": "bool"
        }
      ],
      "stateMutability": "pure",
      "type": "function"
    }
  ],
  "bytecode": "0x608060405234801561001057600080fd5b5061179c806100206000396000f3fe608060405234801561001057600080fd5b506004361061007c5760003560e01c80634e1273f41161005b5780634e1273f4146100fd578063a22cb4651461012d578063e985e9c514610149578063f242432a146101795761007c565b8062fdd58e1461008157806301ffc9a7146100b15780632eb2c2d6146100e1575b600080fd5b61009b60048036038101906100969190610b75565b610195565b6040516100a89190610bc4565b60405180910390f35b6100cb60048036038101906100c69190610c37565b61025d565b6040516100d89190610c7f565b60405180910390f35b6100fb60048036038101906100f69190610e4e565b61028f565b005b61011760048036038101906101129190610fe3565b6104fa565b6040516101249190611119565b60405180910390f35b61014760048036038101906101429190611167565b610615565b005b610163600480360381019061015e91906111a7565b610712565b6040516101709190610c7f565b60405180910390f35b610193600480360381019061018e91906111e7565b6107a6565b005b60008073ffffffffffffffffffffffffffffffffffffffff168373ffffffffffffffffffffffffffffffffffffffff1603610205576040517f08c379a00000000000000000000000000000000000000000000000000000000081526004016101fc906112de565b60405180910390fd5b60008083815260200190815260200160002060008473ffffffffffffffffffffffffffffffffffffffff1673ffffffffffffffffffffffffffffffffffffffff16815260200190815260200160002054905092915050565b600063d9b67a2660e01b827bffffffffffffffffffffffffffffffffffffffffffffffffffffffff1916149050919050565b8573ffffffffffffffffffffffffffffffffffffffff163373ffffffffffffffffffffffffffffffffffffffff1614806102cf57506102ce8633610712565b5b61030e576040517f08c379a000000000000000000000000000000000000000000000000000000000815260040161030590611370565b60405180910390fd5b600073ffffffffffffffffffffffffffffffffffffffff168573ffffffffffffffffffffffffffffffffffffffff160361037d576040517f08c379a0000000000000000000000000000000000000000000000000000000008152600401610374906113dc565b60405180910390fd5b82518451036103c1576040517f08c379a00000000000000000000000000000000000000000000000000000000081526004016103b89061146e565b60405180910390fd5b60005b845181101561042c5760008582815181106103e2576103e161148e565b5b6020026020010151905060008583815181106104015761040061148e565b5b6020026020010151905061041789898484610961565b50508080610424906114ec565b9150506103c4565b508473ffffffffffffffffffffffffffffffffffffffff168673ffffffffffffffffffffffffffffffffffffffff163373ffffffffffffffffffffffffffffffffffffffff167f4a39dc06d4c0dbc64b70af90fd698a233a518aa5d07e595d983b8c0526c8f7fb87876040516104a3929190611534565b60405180910390a46104b3610ac4565b6104f2576040517f08c379a00000000000000000000000000000000000000000000000000000000081526004016104e9906115b7565b60405180910390fd5b505050505050565b60608151835114610540576040517f08c379a000000000000000000000000000000000000000000000000000000000815260040161053790611649565b60405180910390fd5b6000835167ffffffffffffffff81111561055d5761055c610cb0565b5b60405190808252806020026020018201604052801561058b5781602001602082028036833780820191505090505b50905060005b845181101561060a576105d88582815181106105b0576105af61148e565b5b60200260200101518583815181106105cb576105ca61148e565b5b6020026020010151610195565b8282815181106105eb576105ea61148e565b5b6020026020010181815250508080610602906114ec565b915050610591565b508091505092915050565b80600160003373ffffffffffffffffffffffffffffffffffffffff1673ffffffffffffffffffffffffffffffffffffffff16815260200190815260200160002060008473ffffffffffffffffffffffffffffffffffffffff1673ffffffffffffffffffffffffffffffffffffffff16815260200190815260200160002060006101000a81548160ff0219169083151502179055508173ffffffffffffffffffffffffffffffffffffffff163373ffffffffffffffffffffffffffffffffffffffff167f17307eab39ab6107e8899845ad3d59bd9653f200f220920489ca2b5937696c31836040516107069190610c7f565b60405180910390a35050565b6000600160008473ffffffffffffffffffffffffffffffffffffffff1673ffffffffffffffffffffffffffffffffffffffff16815260200190815260200160002060008373ffffffffffffffffffffffffffffffffffffffff1673ffffffffffffffffffffffffffffffffffffffff16815260200190815260200160002060009054906101000a900460ff16905092915050565b8573ffffffffffffffffffffffffffffffffffffffff163373ffffffffffffffffffffffffffffffffffffffff1614806107e657506107e58633610712565b5b610825576040517f08c379a000000000000000000000000000000000000000000000000000000000815260040161081c90611370565b60405180910390fd5b600073ffffffffffffffffffffffffffffffffffffffff168573ffffffffffffffffffffffffffffffffffffffff1603610894576040517f08c379a000000000000000000000000000000000000000000000000000000000815260040161088b906113dc565b60405180910390fd5b8473ffffffffffffffffffffffffffffffffffffffff168673ffffffffffffffffffffffffffffffffffffffff163373ffffffffffffffffffffffffffffffffffffffff167fc3d58168c5ae7397731d063d5bbf3d657854427343f4c083240f7aacaa2d0f62878760405161090a929190611669565b60405180910390a461091a610ac4565b610959576040517f08c379a0000000000000000000000000000000000000000000000000000000008152600401610950906115b7565b60405180910390fd5b505050505050565b600080600084815260200190815260200160002060008673ffffffffffffffffffffffffffffffffffffffff1673ffffffffffffffffffffffffffffffffffffffff168152602001908152602001600020549050818110156109f8576040517f08c379a00000000000000000000000000000000000000000000000000000000081526004016109ef906116de565b60405180910390fd5b8181610a0491906116fe565b60008085815260200190815260200160002060008773ffffffffffffffffffffffffffffffffffffffff1673ffffffffffffffffffffffffffffffffffffffff168152602001908152602001600020819055508160008085815260200190815260200160002060008673ffffffffffffffffffffffffffffffffffffffff1673ffffffffffffffffffffffffffffffffffffffff1681526020019081526020016000206000828254610ab69190611732565b925050819055505050505050565b60006001905090565b6000604051905090565b600080fd5b600080fd5b600073ffffffffffffffffffffffffffffffffffffffff82169050919050565b6000610b0c82610ae1565b9050919050565b610b1c81610b01565b8114610b2757600080fd5b50565b600081359050610b3981610b13565b92915050565b6000819050919050565b610b5281610b3f565b8114610b5d57600080fd5b50565b600081359050610b6f81610b49565b92915050565b60008060408385031215610b8c57610b8b610ad7565b5b6000610b9a85828601610b2a565b9250506020610bab85828601610b60565b9150509250929050565b610bbe81610b3f565b82525050565b6000602082019050610bd96000830184610bb5565b92915050565b60007fffffffff0000000000000000000000000000000000000000000000000000000082169050919050565b610c1481610bdf565b8114610c1f57600080fd5b50565b600081359050610c3181610c0b565b92915050565b600060208284031215610c4d57610c4c610ad7565b5b6000610c5b84828501610c22565b91505092915050565b60008115159050919050565b610c7981610c64565b82525050565b6000602082019050610c946000830184610c70565b92915050565b600080fd5b6000601f19601f8301169050919050565b7f4e487b7100000000000000000000000000000000000000000000000000000000600052604160045260246000fd5b610ce882610c9f565b810181811067ffffffffffffffff82111715610d0757610d06610cb0565b5b80604052505050565b6000610d1a610acd565b9050610d268282610cdf565b919050565b600067ffffffffffffffff821115610d4657610d45610cb0565b5b602082029050602081019050919050565b600080fd5b6000610d6f610d6a84610d2b565b610d10565b90508083825260208201905060208402830185811115610d9257610d91610d57565b5b835b81811015610dbb5780610da78882610b60565b845260208401935050602081019050610d94565b5050509392505050565b600082601f830112610dda57610dd9610c9a565b5b8135610dea848260208601610d5c565b91505092915050565b600080fd5b60008083601f840112610e0e57610e0d610c9a565b5b8235905067ffffffffffffffff811115610e2b57610e2a610df3565b5b602083019150836001820283011115610e4757610e46610d57565b5b9250929050565b60008060008060008060a08789031215610e6b57610e6a610ad7565b5b6000610e7989828a01610b2a565b9650506020610e8a89828a01610b2a565b955050604087013567ffffffffffffffff811115610eab57610eaa610adc565b5b610eb789828a01610dc5565b945050606087013567ffffffffffffffff811115610ed857610ed7610adc565b5b610ee489828a01610dc5565b935050608087013567ffffffffffffffff811115610f0557610f04610adc565b5b610f1189828a01610df8565b92509250509295509295509295565b600067ffffffffffffffff821115610f3b57610f3a610cb0565b5b602082029050602081019050919050565b6000610f5f610f5a84610f20565b610d10565b90508083825260208201905060208402830185811115610f8257610f81610d57565b5b835b81811015610fab5780610f978882610b2a565b845260208401935050602081019050610f84565b5050509392505050565b600082601f830112610fca57610fc9610c9a565b5b8135610fda848260208601610f4c565b91505092915050565b60008060408385031215610ffa57610ff9610ad7565b5b600083013567ffffffffffffffff81111561101857611017610adc565b5b61102485828601610fb5565b925050602083013567ffffffffffffffff81111561104557611044610adc565b5b61105185828601610dc5565b9150509250929050565b600081519050919050565b600082825260208201905092915050565b6000819050602082019050919050565b61109081610b3f565b82525050565b60006110a28383611087565b60208301905092915050565b6000602082019050919050565b60006110c68261105b565b6110d08185611066565b93506110db83611077565b8060005b8381101561110c5781516110f38882611096565b97506110fe836110ae565b9250506001810190506110df565b5085935050505092915050565b6000602082019050818103600083015261113381846110bb565b905092915050565b61114481610c64565b811461114f57600080fd5b50565b6000813590506111618161113b565b92915050565b6000806040838503121561117e5761117d610ad7565b5b600061118c85828601610b2a565b925050602061119d85828601611152565b9150509250929050565b600080604083850312156111be576111bd610ad7565b5b60006111cc85828601610b2a565b92505060206111dd85828601610b2a565b9150509250929050565b60008060008060008060a0878903121561120457611203610ad7565b5b600061121289828a01610b2a565b965050602061122389828a01610b2a565b955050604061123489828a01610b60565b945050606061124589828a01610b60565b935050608087013567ffffffffffffffff81111561126657611265610adc565b5b61127289828a01610df8565b92509250509295509295509295565b600082825260208201905092915050565b7f61646472657373206973207a65726f0000000000000000000000000000000000600082015250565b60006112c8600f83611281565b91506112d382611292565b602082019050919050565b600060208201905081810360008301526112f7816112bb565b9050919050565b7f6d73672e73656e646572206973206e6f7420746865206f70657261746f72206f60008201527f72206f776e657200000000000000000000000000000000000000000000000000602082015250565b600061135a602783611281565b9150611365826112fe565b604082019050919050565b600060208201905081810360008301526113898161134d565b9050919050565b7f6164647265737320697320300000000000000000000000000000000000000000600082015250565b60006113c6600c83611281565b91506113d182611390565b602082019050919050565b600060208201905081810360008301526113f5816113b9565b9050919050565b7f69647320616e6420616d6f756e74732073686f756c64206265206f662074686560008201527f2073616d65206c656e6774680000000000000000000000000000000000000000602082015250565b6000611458602c83611281565b9150611463826113fc565b604082019050919050565b600060208201905081810360008301526114878161144b565b9050919050565b7f4e487b7100000000000000000000000000000000000000000000000000000000600052603260045260246000fd5b7f4e487b7100000000000000000000000000000000000000000000000000000000600052601160045260246000fd5b60006114f782610b3f565b91507fffffffffffffffffffffffffffffffffffffffffffffffffffffffffffffffff8203611529576115286114bd565b5b600182019050919050565b6000604082019050818103600083015261154e81856110bb565b9050818103602083015261156281846110bb565b90509392505050565b7f7265636569766572206973206e6f7420696d706c656d656e7465640000000000600082015250565b60006115a1601b83611281565b91506115ac8261156b565b602082019050919050565b600060208201905081810360008301526115d081611594565b9050919050565b7f6163636f756e7420616e642069647320617265206e6f74207468652073616d6560008201527f206c656e67746800000000000000000000000000000000000000000000000000602082015250565b6000611633602783611281565b915061163e826115d7565b604082019050919050565b6000602082019050818103600083015261166281611626565b9050919050565b600060408201905061167e6000830185610bb5565b61168b6020830184610bb5565b9392505050565b7f696e7375666669656369656e742066756e647300000000000000000000000000600082015250565b60006116c8601383611281565b91506116d382611692565b602082019050919050565b600060208201905081810360008301526116f7816116bb565b9050919050565b600061170982610b3f565b915061171483610b3f565b925082820390508181111561172c5761172b6114bd565b5b92915050565b600061173d82610b3f565b915061174883610b3f565b92508282019050808211156117605761175f6114bd565b5b9291505056fea2646970667358221220fed35083753f0bb181b4711034a9794e4bb449582851c8c9d5722dc04716fe9464736f6c63430008110033",
  "linkReferences": {},
  "deployedLinkReferences": {}
}